:1000000065C089C088C087C086C085C084C083C0E1
:1000100082C0FCC580C0B8C4E9C47DC07CC07BC0C0
:100020007AC079C078C004C11CC10AC11AC113C109
:1000300018C11FC121C12CC17EC196C184C194C108
:100040008DC192C199C19BC1A6C1F8C1FFC109C2AE
:100050000EC215C217C222C274C27BC285C28AC236
:1000600091C293C29EC20000000000000000000484
:10007000050700000000000000000000000102046D
:10008000081020408001020408102001020408101A
:100090002040804004040404040404040202020218
:1000A00002020303030303030202030000000036FD
:1000B000003300300000000000380035003200003E
:1000C00000000037003400310000240511241FBE59
:1000D000CFE5D4E0DEBFCDBF10E0A0E6B0E0E2E9BE
:1000E000FEE002C005900D92AA3CB107D9F721E0CD
:1000F000AAECB0E001C01D92A438B207E1F710E00D
:10010000C6E6D0E003C02197FE01BBD6C536D107B5
:10011000D1F772D5BCC674CF61E08AE0FED561E04C
:1001200088E0FBD561E087E0F8D562E08FE0F5D5A7
:1001300062E08EE0F2D561E080E1EFD561E081E13F
:10014000ECD561E083E1E9D561E082E1E6D560E0EC
:1001500080E11FD661E081E11CD661E083E119D620
:1001600061E082E116D626E040E855E260E070E00A
:100170008EED90E0AAC3CF92DF92EF92FF926B01D7
:100180007C018ED56093CF007093D0008093D10016
:100190009093D200C092CB00D092CC00E092CD00E0
:1001A000F092CE0081E08093CA00FF90EF90DF9044
:1001B000CF9008950F931F938091CA0081111BC0A7
:1001C0001092CA0060E670E08EED90E0A7D44AE09D
:1001D00050E06091D3008EED90E0FDD4E091D3002B
:1001E0008E2F90E0FC013197E930F10508F05FC0F7
:1001F000ED5EFF4F099454D50091CF001091D000CF
:100200002091D1003091D200DC01CB01801B910BF9
:10021000A20BB30B0091CB001091CC002091CD002C
:100220003091CE00081719072A073B0748F242C051
:1002300061E08AE0AED560E088E0ABD560E00FC059
:1002400061E08AE0A6D561E088E0A3D568EE73E0BE
:1002500080E090E018C061E08AE09BD561E087E033
:10026000F4CF60E08AE095D564EF71E080E090E043
:100270000AC060E087E002C060E088E08AD56AEFEB
:1002800070E080E090E077DF8091D3008F5F10C056
:1002900061E088E07ED561E087E07BD564EF71E0C6
:1002A00080E090E068DF8091D5008093D40081E009
:1002B0008093D3001F910F9108950F931F93809106
:1002C000CA0081111BC01092CA0061E770E08EED78
:1002D00090E024D44AE050E06091D3008EED90E0AD
:1002E0007AD4E091D3008E2F90E0FC013197E93071
:1002F000F10508F05FC0E45EFF4F0994D1D400918E
:10030000CF001091D0002091D1003091D200DC01BB
:10031000CB01801B910BA20BB30B0091CB00109172
:10032000CC002091CD003091CE00081719072A0784
:100330003B0748F242C061E08AE02BD560E088E0EC
:1003400028D560E00FC061E08AE023D561E088E055
:1003500020D56CEB72E080E090E018C061E08AE0AC
:1003600018D561E087E0F4CF60E08AE012D564EF51
:1003700071E080E090E00AC060E087E002C060E0E9
:1003800088E007D56AEF70E080E090E0F4DE8091CD
:10039000D3008F5F10C061E088E0FBD461E087E0AC
:1003A000F8D464EF71E080E090E0E5DE8091D50064
:1003B0008093D40081E08093D3001F910F91089522
:1003C0000F931F938091CA0081111BC01092CA0025
:1003D00062E870E08EED90E0A1D34AE050E06091D9
:1003E000D3008EED90E0F7D3E091D3008E2F90E014
:1003F000FC013197E730F10508F05FC0EB5DFF4F7E
:1004000009944ED40091CF001091D0002091D100DA
:100410003091D200DC01CB01801B910BA20BB30BFE
:100420000091CB001091CC002091CD003091CE00F6
:10043000081719072A073B0748F242C061E08AE023
:10044000A8D460E088E0A5D460E00FC061E08AE055
:10045000A0D461E088E09DD468EE73E080E090E095
:1004600018C061E08AE095D461E087E0F4CF60E0F5
:100470008AE08FD464EF71E080E090E00AC060E031
:1004800087E002C060E088E084D46AEF70E080E03A
:1004900090E071DE8091D3008F5F10C061E088E052
:1004A00078D461E087E075D464EF71E080E090E09B
:1004B00062DE8091D5008093D40081E08093D300E8
:1004C0001F910F9108950F931F938091CA0081117E
:1004D0001BC01092CA0063E970E08EED90E01ED35D
:1004E0004AE050E06091D3008EED90E074D3E0914B
:1004F000D3008E2F90E0FC013197E730F10508F032
:100500005FC0E45DFF4F0994CBD30091CF00109101
:10051000D0002091D1003091D200DC01CB01801BB2
:10052000910BA20BB30B0091CB001091CC0020914A
:10053000CD003091CE00081719072A073B0748F273
:1005400042C061E08AE025D460E088E022D460E027
:100550000FC061E08AE01DD461E088E01AD46CEB42
:1005600072E080E090E018C061E08AE012D461E0BF
:1005700087E0F4CF60E08AE00CD464EF71E080E0C3
:1005800090E00AC060E087E002C060E088E001D44B
:100590006AEF70E080E090E0EEDD8091D3008F5F45
:1005A00010C061E088E0F5D361E087E0F2D364EF4A
:1005B00071E080E090E0DFDD8091D5008093D40091
:1005C00081E08093D3001F910F9108950F931F93A3
:1005D0008FE00DD4892B31F48EE009D4892B11F0F2
:1005E00081E009C08FE003D4892B21F08EE0FFD396
:1005F000892BA9F18FEF9091DB00891769F0109298
:10060000D6008093DB004CD36093D7007093D80062
:100610008093D9009093DA008091D600811121C097
:100620003FD30091D7001091D8002091D90030918C
:10063000DA00DC01CB01801B910BA20BB30BC2973C
:10064000A105B10570F09091DB009093DC0081E092
:100650008093D6009F3F29F08093DD0002C082E0A6
:10066000CACF1F910F9108958091DD00882329F052
:100670001092DD008091DC0008958FEF0895CF93F4
:10068000F3DFC82F813001F564EA70E08EED90E071
:1006900045D240E150E061E08EED90E09CD2809147
:1006A000D500811107C0C093D50061E080E171D30E
:1006B00060E006C01092D50060E080E16AD361E09E
:1006C00081E167D361E01BC0823059F564EA70E0D4
:1006D0008EED90E023D240E150E062E08EED90E0BC
:1006E0007AD28091D500823071F483E08093D50076
:1006F00061E080E14ED361E081E14BD360E083E1D2
:1007000048D361E00CC0C093D50061E080E141D3E3
:1007100061E081E13ED361E083E13BD360E082E1CF
:1007200038D38091D400813049F030F0823041F0EC
:10073000833039F4C8DE05C03DDD03C0BEDD01C035
:100740003FDECF9143CFFC01918D228D892F90E028
:10075000805C9F4F821B91098F7399270895FC013C
:10076000918D828D981731F0828DE80FF11D858D66
:1007700090E008958FEF9FEF0895FC01918D828D99
:10078000981761F0828DDF01A80FB11D5D968C91E5
:10079000928D9F5F9F73928F90E008958FEF9FEFF0
:1007A00008958BE195E0892B39F080E090E0892B6A
:1007B00019F041D1811124CC0895FC01848DDF0111
:1007C000A80FB11DA35ABF4F2C91848D90E00196C4
:1007D0008F739927848FA689B7892C93A089B189B3
:1007E0008C9180648C93938D848D981306C00288BD
:1007F000F389E02D80818F7D80830895EF92FF92B1
:100800000F931F93CF93DF93EC0181E0888F9B8D33
:100810008C8D981305C0E889F989808185FD23C0F6
:10082000F62E0B8D10E00F5F1F4F0F731127E02E78
:100830008C8DE8120BC00FB607FCFACFE889F98956
:10084000808185FFF5CFCE01B8DFF2CF8B8DFE0121
:10085000E80FF11DE35AFF4FF0820B8FEA89FB8905
:100860008081806207C0EE89FF896083E889F98909
:1008700080818064808381E090E0DF91CF911F913F
:100880000F91FF90EF900895CF93DF93EC01888D47
:100890008823C1F0EA89FB89808185FD05C0A8898C
:1008A000B9898C9186FD0EC00FB607FCF5CF80810B
:1008B00085FFF2CFA889B9898C9185FFEDCFCE0154
:1008C0007CDFE8CFDF91CF910895CF92DF92EF9256
:1008D000FF921F93CF93DF93EC016A017B01122FEC
:1008E00060E874E88EE190E0A7019601A8D2DA01F1
:1008F000C9010197A109B109B695A7959795879563
:100900009C01E889F98982E08083211580E138071C
:10091000A0F0E889F989108260E472E48FE090E049
:10092000A70196018CD2DA01C9010197A109B10989
:10093000B695A795979587959C01EC85FD853083A5
:10094000EE85FF852083188E1068EC89FD89108361
:10095000EA89FB89808180618083EA89FB898081C3
:1009600088608083EA89FB89808180688083EA8946
:10097000FB8980818F7D8083DF91CF911F91FF90D4
:10098000EF90DF90CF9008951F920F920FB60F92C5
:1009900011242F938F939F93EF93FF93E091EE0099
:1009A000F091EF008081E091F400F091F50082FD7C
:1009B00012C090818091F7008F5F8F732091F800B3
:1009C000821751F0E091F700F0E0E252FF4F958F6F
:1009D0008093F70001C08081FF91EF919F918F91EB
:1009E0002F910F900FBE0F901F9018951F920F928E
:1009F0000FB60F9211242F933F934F935F936F93F2
:100A00007F938F939F93AF93BF93EF93FF938EED5D
:100A100090E0D3DEFF91EF91BF91AF919F918F91C5
:100A20007F916F915F914F913F912F910F900FBEEA
:100A30000F901F9018958EED90E085DE21E0892BB8
:100A400009F420E0822F0895EEEDF0E01382128287
:100A500088EE93E0A0E0B0E084839583A683B7831B
:100A60008FEA90E09183808380E490E0958784878B
:100A700029E230E0378726872BE230E0318B208B6C
:100A80002AE230E0338B228B958B848B8CE290E0D2
:100A9000978B868B118E128E138E148E0895CF92A3
:100AA000DF92EF92FF920F931F93CF93DF936C012E
:100AB0007A018B01C0E0D0E0CE15DF0581F0D801CE
:100AC0006D918D01D601ED91FC910190F081E02DA9
:100AD000C6010995892B11F02196EECF7E01C70141
:100AE000DF91CF911F910F91FF90EF90DF90CF900A
:100AF00008956115710579F0FB0101900020E9F777
:100B00003197AF01461B570BDC01ED91FC91028040
:100B1000F381E02D099480E090E00895EACF6BEB3B
:100B200070E0E7CF8F929F92AF92BF92EF92FF92C9
:100B30000F931F93CF93DF93CDB7DEB7A1970FB677
:100B4000F894DEBF0FBECDBF7C01FA01CB0119A224
:100B5000223008F42AE08E010F5D1F4F822E912C67
:100B6000A12CB12CBF01A501940169D1F901CA01E1
:100B7000015011096A3014F4605D01C0695CD8014C
:100B80006C93232B242B252B69F7B801C701B1DF08
:100B9000A1960FB6F894DEBF0FBECDBFDF91CF9107
:100BA0001F910F91FF90EF90BF90AF909F908F900B
:100BB00008952115310541F4DC01ED91FC9101907E
:100BC000F081E02D642F0994ADCF9A01462F50E0BB
:100BD00060E070E0EECF0F931F93CF93DF93EC01B3
:100BE000F4DF8C01CE019BDF800F911FDF91CF914D
:100BF0001F910F91089508955FD0FDDF8DDAC1ED4B
:100C0000D3E03DDD2097E9F3CCDDFBCF1F920F92BF
:100C10000FB60F9211242F933F938F939F93AF930F
:100C2000BF9380917C0190917D01A0917E01B09154
:100C30007F0130917B0126E0230F2D3720F40296AF
:100C4000A11DB11D05C029E8230F0396A11DB11DEB
:100C500020937B0180937C0190937D01A0937E0182
:100C6000B0937F018091800190918101A0918201D8
:100C7000B09183010196A11DB11D809380019093D5
:100C80008101A0938201B0938301BF91AF919F91A5
:100C90008F913F912F910F900FBE0F901F9018953D
:100CA0002FB7F89460917C0170917D0180917E0155
:100CB00090917F012FBF0895789483B7826083BF9E
:100CC00083B7816083BF89B7816089BF1EBC8EB541
:100CD00082608EBD8EB581608EBD8FB581608FBD07
:100CE00085B5846085BD85B5806485BD329A319AAD
:100CF0003098379A1AB80895853039F0873049F01E
:100D0000843051F48FB58F7702C08FB58F7D8FBD42
:100D1000089585B58F7D85BD0895CF93DF9390E0CD
:100D2000FC01E358FF4F2491FC01EC56FF4F8491E6
:100D3000882361F190E0880F991FFC01E154FF4F77
:100D4000C591D491FC01EB54FF4FA591B491611171
:100D500009C09FB7F8948881209582238883EC91FD
:100D60002E230BC0623061F49FB7F8948881322F34
:100D7000309583238883EC912E2B2C939FBF06C044
:100D80008FB7F894E8812E2B28838FBFDF91CF9106
:100D900008951F93CF93DF93282F30E0F901EA598C
:100DA000FF4F8491F901E358FF4FD491F901EC56BC
:100DB000FF4FC491CC23B9F0162F81119DDFEC2F8A
:100DC000F0E0EE0FFF1FEB54FF4FA591B4919FB7DA
:100DD000F894111104C08C91D095D82302C0EC91E5
:100DE000DE2BDC939FBFDF91CF911F910895CF93AE
:100DF000DF93282F30E0F901EA59FF4F8491F90180
:100E0000E358FF4FD491F901EC56FF4FC491CC2326
:100E100089F0811171DFEC2FF0E0EE0FFF1FE55537
:100E2000FF4FA591B491EC91ED2381E090E021F486
:100E300080E002C080E090E0DF91CF910895A1E2D0
:100E40001A2EAA1BBB1BFD010DC0AA1FBB1FEE1F44
:100E5000FF1FA217B307E407F50720F0A21BB30B8F
:100E6000E40BF50B661F771F881F991F1A9469F70B
:100E700060957095809590959B01AC01BD01CF0167
:100E80000895EE0FFF1F0590F491E02D0994F8945A
:020E9000FFCF92
:100E92004D315F4C312C20207374616765203D20F9
:100EA200004D315F4C322C20207374616765203D08
:100EB20020004D325F4C312C202073746167652015
:100EC2003D20004D325F4C322C20207374616765E7
:100ED200203D20006B6579203D200000000000FECF
:100EE200034F05A303BD03AF0344040D0A006E6163
:0A0EF2006E00696E66006F76660000
:00000001FF
